:020000040800F2
:10000000B0100020C9020008EF320008432A00089F
:10001000ED3200086D0700089F380008000000005E
:10002000000000000000000000000000073600088B
:10003000E107000800000000F1320008093600085E
:10004000E3020008E3020008E3020008E3020008FC
:10005000E3020008E3020008E3020008E3020008EC
:10006000E3020008E3020008E30200087107000849
:10007000E3020008E3020008E3020008E3020008CC
:10008000E302000800000000E3020008E3020008A9
:10009000E3020008E3020008E3020008E3020008AC
:1000A000E3020008E3020008E3020008E30200089C
:1000B0009D360008A9360008B5360008E30200089E
:1000C000E3020008E3020008E3020008E30200087C
:1000D000E3020008E3020008E3020008E30200086C
:1000E000E3020008E3020008E3020008E30200085C
:1000F000E3020008E3020008E30200080000000039
:1001000000000000E302000800000000E302000815
:10011000E302000800000000C1360008E302000806
:10012000E3020008E3020008E3020008E30200081B
:10013000E30200080000000000000000E3020008E5
:10014000E3020008E30200080000000000000000D5
:10015000000000000000000000000000000000009F
:10016000000000000000000000000000E3020008A2
:10017000E302000800000000000000000000000092
:1001800000000000E3020008000000000000000082
:10019000000000000000000000000000000000005F
:1001A0000000000000000000E3020008E302000875
:1001B000E3020008E3020008E30200080000000078
:1001C00000000000E3020008000000000000000042
:1001D000E3020008E302000800F002F800F065F80E
:1001E0000AA090E8000C82448344AAF10107DA4592
:1001F00001D100F05AF8AFF2090EBAE80F0013F07F
:10020000010F18BFFB1A43F00103184724660000D2
:100210004466000010F8013B0A4413F0030408BFD1
:1002200010F8014B1D1108BF10F8015B641E05D0CA
:1002300010F8016B641E01F8016BF9D1002D15D087
:1002400010F8014B03F00C030C2BA1EB04040ABFC4
:1002500010F8013BA4EB8314A4EB032405F1010384
:1002600014F8016B5B1E01F8016BF9D5914238BFA0
:1002700010F8013BD1D3704700230024002500264D
:10028000103A28BF78C1FBD8520728BF30C148BFF9
:100290000B607047642900F07380002070471FB521
:1002A00005F035F91FBD10B510BD00F0F5F9114688
:1002B000FFF7F5FF03F0D0FF00F013FA03B4FFF7E8
:1002C000F2FF03BC00F016FA0948804709480047CE
:1002D000FEE7FEE7FEE7FEE7FEE7FEE7FEE7FEE7F6
:1002E000FEE7FEE704480549054A064B7047000053
:1002F00081360008D9010008B00A0020B0100020A3
:10030000B00C0020B00C00200FB41CB5074B06AA9F
:100310007B4469460090059800F09DF900206946ED
:1003200000F0ACF91CBC5DF814FB00006903000090
:1003300070B5044685690068C10601D5302600E025
:100340002026C00707D070BDD4E901213046904770
:10035000206A401C20626D1EF6D570BD70B5044643
:1003600085690078C00707D170BDD4E9012120203C
:100370009047206A401C20626D1EF6D570BD0000BB
:100380002DE9F0410646002410687529314616A56E
:1003900010D0AFF30080002802DA404213A507E036
:1003A00031688A0701D512A502E0490704D511A5D5
:1003B000012401E0AFF3008000210A2206F12407A6
:1003C00009E0B0FBF2FCB0FBF2F302FB1C003030A2
:1003D00078541846491C0028F3D123462A46304653
:1003E000BDE8F04100F0D9B8000000002D00000089
:1003F0002B000000200000002DE9F05F8946044634
:100400004FF0000ADFF824B1FB44C0F820A02046DA
:10041000E168884700287DD0252806D0D4E901214D
:100420009047206A401C2062F1E700255F46204685
:10043000E16888472028064607DB312E05D2B81927
:1004400010F8200C08B10543F1E7A80701D525F005
:100450000405C4F81CA00027C4F818A02A2E09D04F
:10046000304603F0BDFE38B304EB8708303EC8F8D1
:10047000186019E059F8041B204604EB87029161CB
:10048000E1688847012F064618D1E069002820DA84
:1004900025F020051DE0D8F8180000EB800006EBE1
:1004A00040003038C8F818002046E1688847064602
:1004B00003F096FE0028EED1012F0AD02E2E08D18F
:1004C0002046E16888477F1C0646022F45F020053C
:1004D000C4DBA069002803DA404245F00105A061B1
:1004E000E80701D025F01005A6B1A6F141001928B2
:1004F00002D8203645F400654A463146204625603C
:100500004D46FFF7C7FE60B1012807D0ED1D25F06D
:10051000070000E007E000F1080978E705F10409A9
:1005200075E730467AE7206ABDE8F09FEC6200008C
:100530004FF0000200B5134694469646203922BF7C
:10054000A0E80C50A0E80C50B1F12001BFF4F7AFC7
:10055000090728BFA0E80C5048BF0CC05DF804EBA9
:10056000890028BF40F8042B08BF704748BF20F817
:10057000022B11F0804F18BF00F8012B7047704715
:100580007047704710B500F07FF8006810BD10B5D7
:10059000044600F079F8046010BD2DE9F0470D46DF
:1005A00099469246044600F124080168880604D55D
:1005B000E06921F01001216000E00120A84201DD86
:1005C000471B00E00027A1697A1902EB0900081A0D
:1005D000A0612078C00602D42046FFF7A9FE0026BD
:1005E00008E0D4E901211AF806009047206A401C6F
:1005F000761C20624E45F4DB2078C0060AD52046E2
:10060000FFF796FE06E0D4E9012130209047206AEA
:10061000401C2062381EA7F10107F4DC07E0D4E992
:10062000012118F805009047206A401C2062281E0E
:10063000A5F10105F3DC2046FFF790FE20780006C7
:1006400002D50220BDE8F0870120FBE701694A1CC2
:1006500002610878704700B58FB0CDE90131002103
:10066000059105497944CDE9031011466846FFF725
:10067000C3FE0FB000BD0000E5FFFFFF0A6802F8EF
:10068000010B0A6070470000004870474C0A0020C8
:10069000004870474C0A00207546FFF7F9FFAE4648
:1006A00005006946534620F00700854618B020B57E
:1006B000FFF718FEBDE820404FF000064FF000079E
:1006C0004FF000084FF0000B21F00701AC46ACE8FA
:1006D000C009ACE8C009ACE8C009ACE8C0098D4667
:1006E000704710B50446AFF300802046BDE81040C7
:1006F000FFF7E4BD01491820ABBEFEE7260002006B
:100700007047000070B504460068816811F0010F61
:1007100028D18168144A114215D18168D5432940F6
:10072000491C816001F06CF8064616E0816811F002
:10073000010F03D181682940491C816001F060F8F4
:10074000801B022809D9E06D40F01000E065206EA2
:1007500040F001002066012070BD20680168C94397
:10076000C907E3D1002070BD3F000080FEE7000014
:10077000014800F08CBE0000B00800200D4902685E
:100780008A4201D20C4901E00B492031D2B2142334
:10079000083AB2FBF3F2436C02F01F0223F00303AA
:1007A0001944816404498031C1640121914001658B
:1007B0007047000008040240000802400179074A1F
:1007C00002EB81024265054A4432491E826501F00E
:1007D0001F0201219140C16570470000FC080240E2
:1007E0007047002240F6B83306E00021491C89B268
:1007F0009942FBD3521C92B28242F6D370477047A3
:1008000010B513482DED028B9FED108A00F0F2FB1E
:100810000F4800F09DFA00EE100A9FED0E1A0E49E7
:10082000F8EE400A80EE810A10EE100A884204DADF
:10083000B0EE480ABDEC028B10BD10EE100AB0F10C
:100840007E5FF7DDB7EE000AF4E70000000000006D
:10085000C407002000007A45CDCC4C3D2DE9F0477F
:10086000044690F858009CB00D464FF0000801284F
:1008700014D0012084F8580020684FF0A0474FF0B2
:100880000009B8420ED1284E0096304602F000FB17
:100890008246206802F0FCFA60B10EE002201CB033
:1008A000BDE8F087E16D41F02001E16584F85890E2
:1008B0000120F4E7BAF1000F0AD0E06D40F020000B
:1008C000E0654FF0010800BF84F858904046E6E725
:1008D00016482A6840F61F71002A826822F4604296
:1008E00015D094F8383042EA43326B681A4382607C
:1008F000BA68B36802F0010203F001031A43E3D1BE
:10090000AB682A681A4383688B431A430AE0826003
:10091000BA68B36802F0010203F001031A43D3D1AD
:1009200082688A438260CFE70001005000030050D4
:100930002DE9F84F00270446009790F85800DFF89B
:10094000DC930D46B846012811D0012684F8586082
:10095000206802F099FA60B1E06D40F02000E06597
:100960005FF0010784F858803846BDE8F88F022010
:10097000FBE7D5E900210C23206803EA9113184412
:10098000036B01F01F014FF01F0C0CFA01FCC2F3C6
:10099000846223EA0C038A4013430363206802F055
:1009A00073FA8246206802F06BFA5AEA00003CD1E2
:1009B000AA6829682068B2F1004F37D002F06CFABB
:1009C0002068416921F00041416120686969C2687D
:1009D000C2F3C102520091402A69042A31D000EBCF
:1009E00082002B68026EDFF838C303F0F84302EA96
:1009F0000C020B431A4342F0004101662268286949
:100A0000A96902EB8000026E22F080720A4302663E
:100A1000297F20682A69012910D0002100EB82007B
:100A2000026E22F000720A4302667DE0002202F0AC
:100A300033FA2068416941F00041C5E74FF0007189
:100A4000ECE7002102F016FA400320684FF00001A5
:100A500072D002F00FFA90FAA0F0B0FA80F1286894
:100A600042036ED090FAA0F0B0FA80F0814204D137
:100A700000221146206802F01EFA0121206802F0CF
:100A8000F9F9400320684FF001015DD002F0F2F95E
:100A900090FAA0F0B0FA80F12868420359D090FA99
:100AA000A0F0B0FA80F0814204D100220121206838
:100AB00002F001FA0221206802F0DCF9400320680C
:100AC0004FF0020148D002F0D5F990FAA0F0B0FA48
:100AD00080F12868420344D090FAA0F0B0FA80F088
:100AE000814204D100220221206802F0E4F90321AE
:100AF000206802F0BFF9400320684FF0030133D0B3
:100B000002F0B8F990FAA0F0B0FA80F12868420338
:100B10002FD090FAA0F0B0FA80F0814204D10022E8
:100B20000321206802F0C7F92068816811F0010FE5
:100B300022D0ACE000E004E002F09CF9C0F3846154
:100B40008DE7C0F3846091E702F094F9C0F384610B
:100B5000A2E7C0F38460A6E702F08CF9C0F38461D9
:100B6000B7E7C0F38460BBE702F084F9C0F38461A7
:100B7000CCE7C0F38460D0E72A7B296850F8B03F07
:100B8000C1F3120C23EA0C0302F0180C654A22FA96
:100B90000CF20A4013430360E968494577D128689D
:100BA00041031CD090FAA0F1B1FA81F1491C01F087
:100BB0001F0109294FEA403132D8002912D000BF65
:100BC00090FAA0F1B1FA81F101F1010101F01F01E8
:100BD00006FA01F609D100BFC0F3846109E0C0F351
:100BE0008461E3E7C0F38461EEE790FAA0F1B1FA23
:100BF00081F101F1010101F01F0146EA816102D199
:100C0000C0F3846003E090FAA0F0B0FA80F000F145
:100C1000010000F01F0000EB400041EA005132E00B
:100C200000290ED090FAA0F1B1FA81F101F1010191
:100C300001F01F0106FA01F606D100BFC0F384617E
:100C400006E0C0F38461F1E790FAA0F1B1FA81F116
:100C500001F1010101F01F0146EA816102D1C0F3F7
:100C6000846003E090FAA0F0B0FA80F000F1010097
:100C700000F01F002C4A00EB400002EB005041EA5C
:100C8000000141F00071AA68206802F005F92748C8
:100C90002A6802423FF466AE25488168254B01F080
:100CA000E0719A4202D0244B9A421BD10B0219D414
:100CB0002268B2F1A04F7FF455AE826841F4000182
:100CC00022F0E0720A4382601C481D490068B0FBB4
:100CD000F1F000EB4000800000E0401E0090002892
:100CE000FBD13FE6174D184BAA4207D1CD0105D4E1
:100CF00022689A42F5D041F0807109E0134DAA4272
:100D0000EFD14A02EDD422689A42EAD041F4800140
:100D1000826822F0E0720A43826023E600007F408E
:100D200000F0FF03FFFF0700000020FE0000088026
:100D300000030050000021C31000C090A407002051
:100D4000400D0300000052C700010050000084CB9A
:100D50000068006C70470000F8B54FF00005040013
:100D60002E46009502D0E06D10B107E00120F8BDDD
:100D7000204600F0EDF8266684F858602068816807
:100D8000C1F3407119B18168694A114081602068DE
:100D90008168C1F3007179B98168664A114041F0F8
:100DA00080518160644865490068B0FBF1F000E063
:100DB000401E00900028FBD120688168C1F30071BB
:100DC00041B9E16D41F01001E165216E41F0010191
:100DD0002166012502F058F8E16DC90600D430B152
:100DE000E06D40F01000E06501252846F8BDE06D9B
:100DF00020F4807040F00200E0652068806810F008
:100E0000010F11D14FF0A04080684D4900F0010062
:100E1000896801F00101084306D14A486168826887
:100E200022F47C120A438260E168E06B627F08432F
:100E3000A16841EA4231084394F8241040EA014095
:100E4000012904D1218D404A02EB41410843E16A66
:100E500029B101F47871226B014342EA0100216853
:100E6000CA683A4B1A400243CA6020680169626B43
:100E700021F0406111430161206802F005F8064647
:100E8000206801F0FDFF30432ED1207F94F8381008
:100E9000800340EA41022068C16844F2020399439A
:100EA0001143C16020690028206801690AD041F41B
:100EB00080310161206850F8C01F22696FF30D0175
:100EC000114307E021F480310161206850F8C01F10
:100ED0006FF30D01016094F8400001280CD02068E8
:100EE000016921F001010161606901282068016B3D
:100EF00021F00F0111D013E0D4E911010843D4E926
:100F000013121143084321680A6940F2FC739A43A3
:100F1000104340F001000861E6E7226A521E1143C7
:100F20000163E06D20F0020040F00100E0655CE745
:100F3000C0FFFF5FC0FFFF7FA4070020400D03003C
:100F400000010050000300500000FEFF0740F0FFCA
:100F5000F0B587B0044614216846FFF7E9FA214B43
:100F6000266800241A6803251F482049521CB6F140
:100F7000A04F06D01E4FBE4231D11A60012A16D0B2
:100F80001DE01A60012A07D1CA6C42F40052CA64FB
:100F9000CA6C02F400520592CA6C42F00202CA64A2
:100FA000C96C01F0020105914FF4805111E0CA6C47
:100FB00042F40052CA64CA6C02F400520592CA6C30
:100FC00042F00202CA64C96C01F0020105914FF4BB
:100FD0000041CDE900150294694600F027FB07B0F7
:100FE000F0BD0000A00700200004004800100240EF
:100FF000000100502DE9F04104463848806800F0B7
:101000001F05206801F040FF18B102210846BDE825
:10101000F08194F8580001280CD0012084F8580081
:101020002046FFF76FFB01004FF0000304D084F867
:101030005830EBE70220EAE7E06D40F601629043AA
:1010400040F48070E065264A20684FF0A046904248
:1010500001D1374600E00746874200D01DB9E76D51
:1010600027F48017E765E76DFF0404D5276E27F0A6
:101070000607276600E023661C27076084F85830BF
:101080002068904201D1334600E00346834215D0E8
:10109000A5B1052D12D0092D10D0E36D43F48013B6
:1010A000E365904200D13046C0688001AED5E06D66
:1010B00020F4005040F48050E065A7E7C268920138
:1010C00005D5E26D22F4005242F48052E265826856
:1010D000044B1A40121D826098E700000003005084
:1010E00000010050C0FFFF7F704770B54379012BAE
:1010F00015D0012444710223037103681D6801F0B7
:1011000010014FF47C668E4042F08002B5438A4065
:1011100015431D60047100214171084670BD022015
:1011200070BD00002DE9F0470446407900270D46C8
:1011300001280BD04FF0010984F80590022020719E
:10114000A86802F01006042803D043E00220BDE89E
:10115000F0874FF0030802BB00F052FB074604E0A3
:1011600000F04EFBC01B01280FD82068406B000424
:10117000F6D4012000F048FA2168686A086416E095
:1011800000F03EFBC01B012807D9206940F0080091
:10119000206184F804800320D9E72068406B002890
:1011A000EEDB012000F030FA2168686A48642068AC
:1011B000816C40F2FF32B2409143AA6AB2401143BF
:1011C00081642068C16CFF22B2409143EA6AB24058
:1011D0001143C164E869012808D12268916B1F207E
:1011E000B0408143286AB040084390632068C06BD8
:1011F0000721B1408843A969CA0703D1890755D49B
:101200006969E9B300216B69AA681A430A434FF47C
:10121000807101FA06F398432B79012B00D000214D
:1012200011434FF4007202FA06F398436B79012BD5
:1012300000D0002220F44047286842EA0108022832
:1012400036D00743216808FA06F03843C86320689F
:1012500001684FF48042B2409143016022681168F6
:1012600040F6FE70B0408143E868B040084310602B
:1012700020680168C022B24091430160287B00E0F1
:1012800014E0297CC0F3830001F03C0140EA8110A6
:1012900021680A6E40F60F73B3409A43B040024390
:1012A0000A6684F804900020607150E70121AAE7E3
:1012B00000F0D2FD0549884202D947F40047C1E752
:1012C00003498842BED947F48047BBE700688909D3
:1012D00000B4C404704770B50446006801684FF05C
:1012E0000405890411D5416B89040ED52571216946
:1012F00041F001012161E90241632068016821F4A4
:10130000805101602046FFF7E5FF206801688900F1
:1013100014D5416B890011D52571216941F0020175
:1013200021614FF0005141632068016821F0805134
:1013300001602046BDE87040FFF7D6BE70BD70B5B5
:10134000040003D02079002510B105E0012070BD14
:101350006571204600F008F8022020712561012007
:101360002071002070BD0000F0B587B00546142143
:101370006846FFF7DDF82149286888423BD12049BB
:10138000C86C40F48030C864C86C00F480300590AC
:10139000C86C40F00100C864C86C102700F0010060
:1013A0000097059003200026CDE9010669464FF01D
:1013B000904000F03BF9144C124820600620C4E92C
:1013C00001078020C4E90360400060618000A061E3
:1013D0002020C4E90706204600F0B6F808B1FFF760
:1013E0000EFAAC60002211463620A56200F072FAB7
:1013F000362000F061FA07B0F0BD00000008005090
:101400000010024008000240B008002018B5006833
:10141000C46B0090104421B1143000900360002090
:1014200018BD0830F9E72DE9F041044640790D4632
:10143000012822D04FF0010884F805800226267189
:1014400021680A6805F0100708FA07F002430A60ED
:10145000404600F0D9F82068016885B101F47811A0
:10146000BE40B14203D1416841F00201416084F8BD
:10147000048000206071BDE8F0810220FBE7C1F329
:1014800044010129F3D1416841F00101EEE7F0B4D4
:10149000016C0C6801680D6890F8442002F01F068A
:1014A000042202FA06F3234211D06B070FD50B6812
:1014B0009B0603D40B6823F004030B6090F84410E0
:1014C00001F01F018A40016C4A60016B1DE002239C
:1014D00003FA06F727424FF0000C4FF0010218D034
:1014E000AF0716D50C68A40605D40C6824F00A04CE
:1014F0000C6080F8252090F8441001F01F018B400B
:10150000016C4B6080F824C0C16A00291AD0F0BC7D
:1015100008470823B340234214D02B0712D50B6889
:1015200023F00E030B6090F84410036C01F01F01D0
:1015300002FA01F15960C26380F8252080F824C0C6
:10154000416BE2E7F0BC704770B504000CD02B4A49
:1015500021681420914209D2294A0A44B2FBF0F0D2
:101560008000606427480AE0012070BD234A52428F
:101570000A44B2FBF0F08000606420480838206420
:10158000022084F825000A6847F6F0708243D4E907
:1015900002031843D4E904352B431843A3691843C5
:1015A000E3691843236A1843104308602046FFF795
:1015B000E5F8A0680025B0F5804F00D16560A16C0A
:1015C00020790860D4E9130141606068401E032857
:1015D00008D82046FFF7F2F8606D0560D4E91601DF
:1015E000416002E06565A565E565E563012084F875
:1015F000250084F82450002070BD0000080402403B
:10160000F8FFFDBF0000024070B5044600F0F8F896
:101610000546601C02D004484068044400F0F0F81D
:10162000401BA042FAD370BDA80700202DE9FC4F53
:10163000DFF8A0A1002301250AF1040B03244FF0D9
:101640000F0C0BF1040EBDE005FA03F632406FD02B
:101650004F68012F05D0022F03D0112F01D0122F78
:1016600017D1D0F808905F0004FA07F829EA0809B2
:101670000097D1F80C8008FA07F848EA0908C0F882
:1016800008804768B7430E79C6F300169E403E4374
:101690004660C6684FEA430804FA08F7BE4301975C
:1016A0008F6807FA08F73743C7604E68022E01D0EB
:1016B000122E13D1DE0800EB86060096366A5F070D
:1016C000FF0E0CFA07F926EA0906D1F8109009FA7C
:1016D00007F949EA0609009EC6F820900668019FAE
:1016E000BE430F7907F0030707FA08F7374307608F
:1016F0004E68F60065D5384E376E47F001073766FD
:10170000366E23F0030706F001060096334E3E4482
:10171000B146B6689F074FEA17780CFA08F7BE4340
:10172000B0F1904F05D02E4FB84204D1012717E0F9
:1017300047E0002714E02B4FB84201D102270FE009
:10174000294FB84201D103270AE0284FB84201D1FE
:10175000042705E0264FB84201D1052700E00627FF
:1017600007FA08F73743C9F80870DAF800605746F7
:10177000D1F8048096435FEAC83800D516433E602E
:10178000DBF800605F46D1F8048096435FEA883852
:1017900000D516433E60DEF800607746D1F804803D
:1017A00096435FEAC82800D516433E60094F0C37C0
:1017B0003E68D1F8048096435FEA882800D5164336
:1017C0003E605B1C0A6832FA03F67FF43DAFBDE869
:1017D000FC8F0000000401400010024000000140A6
:1017E0000004004800080048000C004800100048B1
:1017F000001400480AB1816170478162704700009F
:101800000148806870470000A807002002488168EE
:101810004268114481607047A807002010B5002479
:10182000032000F077F8002000F008F808B1012448
:1018300001E000F025F8204610BD000070B50E4E06
:1018400005460024706898B14FF47A71B1FBF0F04E
:101850000A490968B1FBF0F000F042FD40B9102DD3
:1018600006D200222946501E00F034F8356000E010
:101870000124204670BD0000A8070020A407002016
:101880000B4808B5016E41F001010166016E01F0DF
:1018900001010091816D41F080518165806D00F002
:1018A000805000900348816841F48041816008BD08
:1018B0000010024000700040002809DB00F01F0209
:1018C000012191404009800000F1E020C0F80011A2
:1018D00070470000F0B40E4B1B680C46C3F30223A4
:1018E000C3F10705042D00D90425191D072901D2CC
:1018F000002300E0DB1E012606FA05F1491E214007
:1019000099409E40761E16403143F0BC01F0E0BF86
:101910000CED00E0064900F0070208684FF6FF03EF
:10192000184040EA0220034A104308607047000054
:101930000CED00E00000FA052B492C4B0A6832211F
:101940004A432B4940B1B0F5007F086829D020F404
:10195000C06040F480602CE00868C0F34120022899
:1019600004D051F8800F20F4807022E0D1F880007C
:1019700020F48070C1F88000086820F4C06040F452
:1019800000700860B2FBF3F0401C00E0401E4A69A2
:10199000520501D50028F9D1486940050AD5032030
:1019A0007047C0F34120022806D051F8800F40F460
:1019B0008070086000207047D1F8800040F480708B
:1019C000C1F88000086820F4C06040F4007008602E
:1019D000B2FBF3F0401C00E0401E4A695205DBD523
:1019E0000028F9D1D8E70000A407002040420F00EA
:1019F000007000402DE9F8430446006800269D4D24
:101A000000035ED5A86D0027C00008D4A86D40F083
:101A10008050A865A86D012700F080500090DFF885
:101A20005892D9F8001041F48071C9F80010FFF7FE
:101A3000E7FE804606E000BFFFF7E2FEA0EB0800ED
:101A400002282BD8D9F80000C005F5D5D5F89000AC
:101A500010F4407014D0216C814211D0D5F8900060
:101A6000D5F8901020F4407041F48031C5F8901002
:101A7000D5F8901021F48031C5F89010C5F8900089
:101A8000C00711D0FFF7BCFE804641F2883907E05D
:101A9000FFF7B6FEA0EB0801494501D903260BE08C
:101AA000D5F890008007F3D5D5F89000216C20F48C
:101AB00040700843C5F890001FB1A86D20F0805019
:101AC000A8652078C00707D0D5F88800616820F0A5
:101AD00003000843C5F888002078800707D5D5F8AB
:101AE0008800A16820F00C000843C5F88800207821
:101AF000400707D5D5F88800E16820F0300008439A
:101B0000C5F888002078000707D5D5F88800216936
:101B100020F0C0000843C5F888002078800607D56B
:101B2000D5F88800616920F440600843C5F8880052
:101B30002078400607D5D5F88800A16920F44050E8
:101B40000843C5F888002078000607D5D5F8880036
:101B5000E16920F440400843C5F888002088C005AA
:101B600007D5D5F88800216A20F440300843C5F82D
:101B700088002088800507D5D5F88800616A20F4A0
:101B800040200843C5F88800208840050FD5D5F8C7
:101B90008800A16A20F440100843C5F88800A06AB4
:101BA000B0F5801F03D1E86840F48010E860208819
:101BB00000050FD5D5F88800E16A20F440000843FD
:101BC000C5F88800E06AB0F5800F03D1E86840F4FA
:101BD0008010E8602088C0040FD5D5F88800216BFC
:101BE00020F040700843C5F88800206BB0F1807F7A
:101BF00003D1E86840F48010E86020884FF000616D
:101C000080040ED5D5F88800626B20F04060104348
:101C1000C5F88800606B884203D1E86840F4801002
:101C2000E860208840040ED5D5F88800A26B20F02B
:101C300040601043C5F88800A06B884203D1E86873
:101C400040F48010E860208800040FD5D5F88800A3
:101C5000E16B20F040500843C5F88800E06BB0F11C
:101C6000805F03D1E86840F48030E8603046BDE82A
:101C7000F883000000100240007000402DE9F0479A
:101C80000E4605004FF0000725D0DFF8AC81D8F8EC
:101C9000000000F00F00B0420CD2D8F8001021F084
:101CA0000F013143C8F80010D8F8000000F00F0011
:101CB000B04210D12968614CC80741F2883A5AD025
:101CC0006868DFF87C91032808D0022820682DD0AE
:101CD000400500282CDB0120BDE8F087206880014A
:101CE000F9D5E06800F00302E068C0F30310401C7F
:101CF000032A19D0534A00BFB2FBF0F0E268C2F3E6
:101D000006225043E268C2F34162521C5200B0FB0B
:101D1000F2F0484517D9A06810F0F00F0CD08807F2
:101D200011D5A86840B10EE0474AE5E78003D0E747
:101D300000F098F8484506D9A06820F0F00040F07F
:101D40008000A0608027A068696820F00300084335
:101D5000A060FFF755FD814606E000BFFFF750FD8C
:101D6000A0EB090151453AD8A068696800F00C0061
:101D7000B0EB810FF2D12868810714D5400703D555
:101D8000A06840F4E060A0602878000705D5A0684E
:101D900020F4605040F4E060A060A068A96820F0E2
:101DA000F000084304E0802F03D1A06820F0F00089
:101DB000A060D8F80010404601F00F01B14216D9DA
:101DC000016821F00F0131430160FFF719FD07465B
:101DD00007E000BFFFF714FDC11B514501D90320E7
:101DE0007AE7D8F8000000F00F00B042F2D128786E
:101DF000400705D5A068E96820F4E0600843A060CA
:101E00002878000706D5A068296920F4605040EAC8
:101E1000C100A06000F026F8A1680C4AC1F30311CC
:101E2000515C01F01F01C840094908600948006879
:101E3000BDE8F047FFF702BD00200240001002405D
:101E400000B4C4040024F40000366E01E866000803
:101E5000A4070020A8070020014800687047000080
:101E6000A4070020184910B58868C0F381021748FC
:101E7000012A0BD08A68164BC2F38102022A06D0CF
:101E80008A68C2F38102032A03D0002010BD1846DD
:101E900010BDCA6802F00304CA68C2F30312521CE0
:101EA000032C02D0B0FBF2F001E0B3FBF2F0CA6801
:101EB000C968C2F306225043C1F34161491C49007D
:101EC000B0FBF1F010BD0000001002400024F4004F
:101ED00000366E012DE9F84304007AD02078FA4DDF
:101EE000C00747D0A868E96800F00C0001F00301C2
:101EF0000C2802D0082817D001E0032914D060680C
:101F0000B0F5803F17D0B0F5A02F286817D020F487
:101F100080302860286820F4802028606068E0B164
:101F2000FFF76EFC064614E02868800322D560683F
:101F30000028D2D01EE0286840F48030EDE740F45D
:101F400080202860F7E700BFFFF75AFC801B642859
:101F500070D828688003F7D50CE0FFF751FC0646DF
:101F600005E000BFFFF74CFC801B6428F0D8286810
:101F70008003F7D4207880074CD5A868E96800F082
:101F80000C0001F003010C2802D004280DD001E060
:101F900002290AD0E068002828682BD040F480701D
:101FA0002860FFF72DFC064619E02868400502D599
:101FB000E068002891D06868217C20F0FE4040EA6B
:101FC00001606860C1480068FFF738FC002800D154
:101FD00020E076E1FFF714FC801B0228B8D82868BF
:101FE0004005F7D56868217C20F0FE4040EA01609A
:101FF00068600FE020F480702860FFF701FC06465F
:1020000005E000BFFFF7FCFB801B0228A0D8286872
:102010004005F7D42078000729D560690028D5F855
:10202000940013D040F00100C5F89400FFF7E8FBDE
:10203000064606E090E000BFFFF7E2FB801B0228A7
:1020400086D8D5F894008007F6D510E020F001007E
:10205000C5F89400FFF7D4FB064604E0FFF7D0FB79
:10206000801B022878D8D5F894008007F6D4207811
:10207000400761D5A86D0026C00008D4A86D40F0C7
:102080008050A865A86D012600F08050009090480F
:102090000168C90511D40168804641F4807101606E
:1020A000FFF7AEFB074604E0FFF7AAFBC01B0228C0
:1020B00052D8D8F80000C005F6D5A068012815D080
:1020C0000528D5F8900016D020F00100C5F8900042
:1020D000D5F8900020F00400C5F89000A06841F207
:1020E0008838B8B1FFF78CFB07460EE0D5F89000B2
:1020F00040F00100F0E740F00400C5F89000F5E77B
:10210000FFF77EFBC11B414526D8D5F8900080071C
:10211000F6D50CE0FFF774FB074604E0FFF770FB11
:10212000C11B414518D8D5F890008007F6D41EB1E0
:10213000A86D20F08050A8652078800629D5A06978
:102140000028D5F8980013D040F00100C5F8980099
:10215000FFF756FB064606E077E000BFFFF750FBAF
:10216000801B022877D8D5F898008007F6D510E0B4
:1021700020F00100C5F89800FFF742FB064604E096
:10218000FFF73EFB801B022865D8D5F89800800732
:10219000F6D4E069F0B3A968C1F38101032961D0E5
:1021A0000228286820F0807028600BD0E86820F0B2
:1021B0000300E860E86847490840E860FFF720FB53
:1021C00004464BE0FFF71CFB064604E0FFF718FB54
:1021D000801B02283FD828688001F7D4F4E9080161
:1021E0006FF00F0202EB01110843218A52044908E3
:1021F00002EB4151A26841EA02210843217D4FF0E0
:102200007E42490802EB41610843217B40EAC160FC
:10221000E96800E062E0304A11400843E86028685D
:1022200040F080702860E86840F08070E860FFF758
:10223000E7FA044605E000BFFFF7E2FA001B0228B8
:1022400009D828688001F7D548E004E0FFF7D8FAFC
:10225000001B022802D90320BDE8F883286880010A
:10226000F4D43BE00128F7D0E868226A00F00301CB
:10227000914226D1616A00F0F002090110399142C1
:102280001FD1A26A00F4FE41B1EB022F19D194F8DC
:102290002C2000F07841B1EBC26F12D1218E00F4F6
:1022A000C00249084905A1F50011914209D194F8ED
:1022B000341000F0C06049084906A1F10071814264
:1022C0000CD00120C8E7000000100240A807002041
:1022D00000700040FFFFEEFE0C809F010020BBE776
:1022E00010B5401EB0F1807F01D3012010BD4FF02A
:1022F000E02460610F21601701F0EAFA0020A0617C
:1023000007202061002010BD70477047704770475C
:1023100070477047F0B590F83C20012A3AD001256B
:1023200080F83C50022280F83D2003685A689C687F
:10233000194E1A4FB34201D0BB4204D122F4700CA3
:102340004A6842EA0C02DFF858C002EA0C02D1F8EF
:1023500000C04CEA020CC3F804C00268B2420DD0BF
:10236000B2F1804F0AD00F4B9A4207D00E4B9A42DF
:1023700004D0BA4202D00D4B9A4204D1896824F0AD
:1023800080031943916080F83D50002180F83C1093
:102390000846F0BD0220F0BD002C01400034014091
:1023A0008FFFFFFD00040040000800400040014096
:1023B000704710B5040003D094F83D0010B107E059
:1023C000012010BD002084F83C00204600F022F8D7
:1023D000022084F83D00211D206801F07FF90120D2
:1023E00084F8480084F83E0084F83F0084F84000F8
:1023F00084F8410084F8420084F8430084F84400E3
:1024000084F8450084F8460084F8470084F83D00CD
:10241000002010BD08B5154A0168154891420ED13B
:10242000816D41F004018165806D002200F004009F
:10243000009011461E20FFF74DFA1E2010E00D4AB5
:10244000914211D1816D41F010018165806D0022B2
:1024500000F01000009011463620FFF73BFA3620BE
:10246000BDE80840FFF728BA08BD0000000800409A
:10247000001002400010004090F83D10012901D0EA
:1024800001207047022180F83D1000688168064AEB
:102490001140062906D0B1F5803F03D0016841F014
:1024A00001010160002070470700010090F83D1015
:1024B000012901D001207047022180F83D100168F8
:1024C000CA6842F00102CA6000688168064A114089
:1024D000062906D0B1F5803F03D0016841F0010123
:1024E00001600020704700000700010070B504463D
:1024F00090F83C00012815D0012584F83C500220BA
:1025000084F83D0022689068354B184020F47F40E5
:1025100090600868B0F5805F50D010DC10F00F0FAD
:1025200003D04BE04FF0020070BD4FEA2012082AA2
:1025300044D2DFE802F05151515149323A1B294B44
:10254000C21A984248D00ADCB0F5005F19D0B0F149
:10255000101F41D0A0F5801120392FD13CE0102A66
:102560003AD0302A38D0402A28D135E0CB68D1E99A
:102570000121206801F00AF92068816841F07701A3
:1025800009E0CB68D1E90121206801F0FFF820685B
:10259000816841F48041816010E0CA684968206820
:1025A00001F008F95021206806E0CA6849682068EF
:1025B00001F048F96021206801F0F2F884F83D50FC
:1025C000002084F83C0070BDCA684968206801F0AA
:1025D000F1F840212068EFE7226801461046EBE75A
:1025E00088FFCEFF3000100070472DE9F04105460E
:1025F00090F83C000C46012836D0012085F83C00BC
:102600008AB3042A42D02868082A51D0D4E900238A
:10261000E168066A26F480560662C669076A26F4EF
:10262000407646EA03234FF6FF7606EA013123F4AB
:10263000704319434FF4204627F4204306EA023240
:102640001A43C16102622868C16921F44061C16115
:102650002868C169A26841EA0221C161002085F8A9
:102660003C00BDE8F08101E00220FAE7D4E9001265
:10267000E368286801F0B0F82868816921F00C014E
:10268000816128688169A26811430FE0D4E90012D2
:10269000E368286801F0E8F82868816921F440615E
:1026A000816128688169A26841EA02218161D5E7D8
:1026B000D4E90027267B016A21F480710162C16997
:1026C000036A21F00301394321F0F00731074FF489
:1026D000206647EA116123F4206306EA02221A43C6
:1026E000C16102622868C16921F00C01C1612868DA
:1026F000C169A2681143B0E710B5040003D094F893
:102700003D0010B107E0012010BD002084F83C001E
:10271000204600F023F8022084F83D00211D2068A7
:1027200000F0DCFF012084F8480084F83E0084F8C3
:102730003F0084F8400084F8410084F8420084F8A7
:10274000430084F8440084F8450084F8460084F887
:10275000470084F83D00002010BD000010B586B091
:10276000044614216846FDF7E3FE2368002128484B
:102770000222B3F1804F27D0264CA34222D1836D91
:1027800043F002038365836D03F002030593C36C7A
:1027900043F00203C364C06C00F0020005901020F7
:1027A0000090CDE90121CDE9031269461A48FEF7F0
:1027B0003DFF002211461D20FFF78CF85FF01D0041
:1027C000FFF77AF806B010BD836D43F0010383650F
:1027D000836D03F001030593C36C43F00103C364ED
:1027E000C06C00F0010005904FF400400090CDE96E
:1027F00001210120CDE9031069464FF09040FEF71A
:1028000015FF002211461C20FFF764F81C20D7E7B3
:1028100000100240000400400004004870B5044667
:10282000006801694FF00005C943890715D4C168E4
:10283000C943890711D4E91E01610120207720686E
:1028400080698007204602D0FFF7CEFE04E000F04A
:10285000E3F8204600F0E1F8257720680169C943D4
:10286000490717D4C168C943490713D46FF004015D
:102870000161022020772068806910F4407F2046A3
:1028800002D0FFF7B1FE04E000F0C6F8204600F0E9
:10289000C4F8257720680169C943090716D4C168BF
:1028A000C943090712D46FF00801016104202077A1
:1028B0002068C0698007204602D0FFF795FE04E03B
:1028C00000F0AAF8204600F0A8F8257720680169F2
:1028D000C943C90617D4C168C943C90613D46FF0E8
:1028E00010010161082020772068C06910F4407F42
:1028F000204602D0FFF778FE04E000F08DF8204675
:1029000000F08BF8257720680169C943C90708D111
:10291000C168C943C90704D1891E0161204600F07E
:102920007DF820680169C943090609D4C168C94313
:10293000090605D46FF0800101612046FFF7E5FC30
:1029400020680169C943C90509D4C168C94309069A
:1029500005D46FF4807101612046FFF7D5FC206833
:102960000169C943490609D4C168C943490605D468
:102970006FF040010161204600F062F820680169B3
:10298000C943890609D4C168C943890605D46FF0D3
:10299000200101612046FFF7B9FC20680169C943A5
:1029A000C90209D4C168C943C90205D46FF48011B2
:1029B00001612046FFF7ACFC20680169C943890228
:1029C00009D4C168C943890205D46FF400110161BB
:1029D0002046FFF79CFC20680169C943490209D4DD
:1029E000C168C943490205D46FF4800101612046E2
:1029F000FFF78FFC20680169C94309020BD4C16845
:102A0000C943090207D46FF4000101612046BDE803
:102A10007040FFF7CDBC70BD704770470068064935
:102A2000884208D10548D0E90021914201D2491CD1
:102A300000E000214160704700080040B807002016
:102A40007047FEE700B585B014216846FDF770FDBC
:102A50004FF6FF70009000200321CDE902010190A4
:102A600069460248FEF7E2FD05B000BD00080048D7
:102A700000B585B014216846FDF75AFD4FF6FF708A
:102A800000900120019003200390002002906946ED
:102A90000248FEF7CBFD05B000BD0000000800486D
:102AA00070B5002406462146204600F0EDF800F0FF
:102AB0007DF94FF49635304600F04CF9641CAC4279
:102AC000F9D370BD30B587B014216846FDF730FDED
:102AD0001E48C16C41F00401C164C16C01F00401E5
:102AE0000591C16C41F00101C164C16C01F00101AB
:102AF0000591C16C41F00201C164C06C012500F078
:102B0000020005904FF44870CDE9000500240394BD
:102B1000694602940E48FEF789FD2802039400904E
:102B2000CDE901544FF0904469462046FEF77EFD02
:102B3000FFF79EFFA06940F48070A0610448183040
:102B4000016841F40871016007B030BD0010024017
:102B500000040048203AD2B2034B02EB420203EBDE
:102B6000021200F003B80000185500082DE9F047E4
:102B700091468A460026044600F086F8DFF8408039
:102B8000012700BF00F012F95FF0000539F81600C8
:102B900007FA05F10842404601D1408800E000886C
:102BA00000F0D8F86D1C102DF0D3641CE4B251462F
:102BB000204600F069F8761C182EE3D3BDE8F087B4
:102BC0000000002010B5FFF77DFF002000F014F892
:102BD000084CA080A088A0F50241303906D000F052
:102BE00011FC002000F008F8A08010BD00F081FB6F
:102BF000F7E700000000002070B51D490A6842F4A4
:102C000000720A600A6842F480720A60184C103C34
:102C1000226842F020022260164A1060086840F0E4
:102C20002000086000BF00BF00BF206840F0200007
:102C30002060206840F480702060FFF703FF4FF0B1
:102C40009041886A40F48070886200BF00BF00BF76
:102C50000848001F006885B2886940F48070886168
:102C6000FFF706FF206840F400702060284670BD22
:102C7000280400481408004801B5BDF800000149C7
:102C8000488008BD0000002010B50C4601462020F9
:102C900000F0BAF82146BDE81040212000F0B4B899
:102CA00001B5BDF800000149088008BD0000002002
:102CB0002DE9F74F002580460199FFF7E5FF0298BF
:102CC000194900EBC00001EBC00A4FF0010B00BF37
:102CD00000F06CF8002605EB4509002409EB060717
:102CE0000BFA04F01AF80710014206D10298FA28EC
:102CF00003D00D48801F008802E00B48801F4088E9
:102D000000F028F8641C082CEAD3761C032EE4D3C8
:102D100008F10100C0B280460199FFF7B5FF6D1CB4
:102D2000182DD5D3BDE8FE8F06000020F0B516465D
:102D3000074600250C4607E021463846FFF70AFF04
:102D4000103C6D1CA4B2761C3278002A01D0142DE0
:102D5000F2D3F0BD134A116841F4007111601149BA
:102D600010390B6843F480730B600B6843F0200349
:102D70000B600D4B1860106840F02000106000BF21
:102D800000BF00BF086840F020000860086840F4F9
:102D90008070086000BF00BF00BF086840F400708A
:102DA000086070472804004814080048144908685F
:102DB00040F400700860086840F4807008601048B3
:102DC0001038026842F0200202600E4B22221A6084
:102DD0000A6842F020020A6000BF00BF00BF01681D
:102DE00041F020010160016841F48071016000BF81
:102DF00000BF00BF016841F400710160704700002E
:102E00002804004814080048184B10B51A6842F40A
:102E100000721A601A6842F480721A60134A103AFB
:102E2000146844F020041460114C2060186840F0CD
:102E30002000186000BF00BF00BF106840F02000F5
:102E40001060106840F4807010602160186840F0D5
:102E50002000186000BF00BF00BF106840F02000D5
:102E60001060106840F48070106010BD28040048A5
:102E70001408004800EB8100006E00F0F840704735
:102E80008068C0F3C00070478068C0F3800070475E
:102E90008068C0F380007047042303EAD15310B563
:102EA00018444369C1F3045107248C40A3438A406A
:102EB0001343436110BD00EB8100016E21F000411E
:102EC000114301667047000030B58BB000240894B0
:102ED0000994202168460A94FDF72AFB1B484FF00D
:102EE000A0410425C0E900148460C4600461C0E905
:102EF0000545047744770121016280F82440C462CB
:102F0000046380F83840C46380F84040FDF724FF34
:102F100008B1FDF774FC08A90C480894FDF79EFC65
:102F200008B1FDF76CFC0A4800900620CDE90104C9
:102F30007F200594CDE9030569460448FDF7F8FCB8
:102F4000002801D0FDF75BFC0BB030BDC4070020AA
:102F50000008302E30B589B020216846FDF7E8FA28
:102F6000184817490024C0E900148460C46004258F
:102F70000461C0E90545047744770121016280F8C6
:102F80002440C462046380F83840C46380F8404041
:102F9000FDF7E2FE08B1FDF732FC0B480090062079
:102FA000CDE901047F200594CDE903056946054874
:102FB000FDF7BEFC002801D0FDF721FC09B030BDB3
:102FC00000010050300800200080F03E00B58DB0B8
:102FD00030216846FDF7ACFA1649154808600846E6
:102FE000FEF7ADF908B1FDF70AFC022000900020C1
:102FF0001E218DF80400CDE902018DF805000121A4
:103000000490CDE905010246079069460948FEF79C
:1030100089F808B1FDF7F3FB002211460548FEF7D9
:1030200064F8002801D0FDF7EAFB0DB000BD0000F8
:10303000000800509C0800200D4808B5816C41F044
:1030400004018164816C01F004010091816C41F004
:1030500001018164806C002200F0010000901146A3
:103060000B20FEF737FCBDE808400B20FEF724BC20
:10307000001002402DE9F04786B014216846FDF7A4
:1030800057FA3448C16C41F00401C164C16C01F0CD
:1030900004010591C16C41F02001C164C16C01F0D3
:1030A00020010591C16C41F00101C164C16C01F0C6
:1030B00001010591C16C41F00201C164C06CDFF8EF
:1030C000988000F002004FF6FF7405900022214620
:1030D0004046FEF78FFB4FF480764FF09049002278
:1030E00031464846FEF786FBDFF870A04FF448777C
:1030F000002239465046FEF77DFB0125CDE900450B
:1031000000240294694640460394FEF78FFACDE905
:103110000054694648460294FEF788FA0720CDE934
:103120000004694650460294FEF780FA0096CDE905
:103130000154694648460394FEF778FA0097CDE9B2
:103140000154694650460394FEF770FA06B0BDE894
:10315000F08700000010024000080048000400480A
:1031600010B588B00024184805940694049400947F
:10317000019402944FF0804103940160A921C0E9B9
:1031800001144FF6FF71C0E903148461FFF7B4FA2C
:1031900008B1FDF734FB049404A90B480694FFF72B
:1031A000B9F808B1FDF72BFB0120CDE900400294EE
:1031B0000022694604480394FFF717FA002801D05B
:1031C000FDF71DFB08B010BD1009002010B588B038
:1031D00000241948059406940494009401940294E0
:1031E000144903940160A921C0E901144FF6FF714D
:1031F000C0E903148461FFF77FFA08B1FDF7FFFA15
:10320000049404A90C480694FFF784F808B1FDF76C
:10321000F6FA0120CDE900400294002269460648F2
:103220000394FFF7E2F9002801D0FDF7E8FA08B0AF
:1032300010BD0000000400405C09002010B588B0FB
:103240000024174800940194029403940494059474
:10325000124906940160A921C0E901140921C0E9BD
:10326000031480218161FFF7A4F808B1FDF7C7FAC4
:103270004FF48050009069460948FFF737F908B1CC
:10328000FDF7BDFA049404A905480694FFF742F837
:10329000002801D0FDF7B3FA08B010BD00080040C7
:1032A000A80900203EB500240F48009401940D4960
:1032B00002940160A921C0E9011409218461C1605F
:1032C000FFF777F808B1FDF79AFA202000906946D9
:1032D00002940548FFF71EF8002801D0FDF78FFA89
:1032E0003EBD000000100040F4090020FEE77047DA
:1032F000704730B501210020FFF786FD4FF47A704A
:10330000FDF76FFA00210120FFF77EFD41F2907179
:103310001020FFF779FD4FF41C516020FFF774FD7A
:1033200001216120FFF770FD02214620FFF76CFDAF
:1033300048F210011320FFF767FD48F2FE0112204A
:10334000FFF762FD4FF4A0610220FFF75DFD41F23F
:1033500030010320FFF758FD40F2033421463020AE
:10336000FFF752FD21463120FFF74EFD2146322066
:10337000FFF74AFDE51E29463320FFF745FD0321EF
:103380003420FFF741FD21463520FFF73DFD142194
:103390003620FFF739FD21463720FFF735FD21465E
:1033A0003820FFF731FD21463920FFF72DFD294652
:1033B0003A20FFF729FD03213B20FFF725FD214699
:1033C0003C20FFF721FD4FF4A0513D20FFF71CFDED
:1033D0004FF400719220FFF717FD21469320FFF76D
:1033E00013FD40F60D019020FFF70EFD41F218018C
:1033F0000320FFF709FDBDE8304040F273110720BC
:10340000FFF702BD10B543F20801E320FFF7FCFC13
:103410001221E720FFF7F8FC41F23121EF20FFF7FE
:10342000F3FC00210120FFF7EFFC4FF4E0610220E4
:10343000FFF7EAFC41F230010320FFF7E5FC002131
:103440000420FFF7E1FC40F207210820FFF7DCFC35
:1034500000210920FFF7D8FC00210A20FFF7D4FC47
:1034600000210C20FFF7D0FC00210D20FFF7CCFC41
:1034700000210F20FFF7C8FC00211020FFF7C4FC3B
:1034800007211120FFF7C0FC00211220FFF7BCFC30
:1034900000211320FFF7B8FCC820FEF7B5F841F271
:1034A00090611020FFF7B0FC40F227211120FFF7B8
:1034B000ABFC3220FEF7A8F81D211220FFF7A4FC78
:1034C0003220FEF7A1F84FF400611320FFF79CFCB7
:1034D00014212920FFF798FC0B212B20FFF794FCE7
:1034E0003220FEF791F800212020FFF78DFC00210B
:1034F0002120FFF789FC07213020FFF785FC40F2EF
:1035000007713120FFF780FC06213220FFF77CFC99
:1035100040F204713520FFF777FC41F60471362044
:10352000FFF772FC04213720FFF76EFC00213820E2
:10353000FFF76AFC40F206713920FFF765FC40F2A4
:1035400001713C20FFF760FC0F213D20FFF75CFC80
:1035500000215020FFF758FCEF215120FFF754FCC9
:1035600000215220FFF750FC40F23F115320FFF79B
:103570004BFC4FF41C516020FFF746FC01216120F9
:10358000FFF742FC00216A20FFF73EFC002180206B
:10359000FFF73AFC00218120FFF736FC0021822052
:1035A000FFF732FC00218320FFF72EFC002184204E
:1035B000FFF72AFC00218520FFF726FC1021902030
:1035C000FFF722FC00219220FFF71EFC032193202D
:1035D000FFF71AFC4FF488719520FFF715FC0021C6
:1035E0009720FFF711FC00219820FFF70DFC41F216
:1035F00018010320FFF708FCBDE8104040F27311EA
:103600000720FFF701BC7047FEF700B900B5A5B071
:1036100038216846FCF78CFF14211FA8FCF788FFAF
:1036200044210EA8FCF784FF0020FEF785F9022054
:10363000C1010391402104910421CDE908010090CA
:103640005521CDE90A1007900C900D906846FEF7C1
:1036500041FC0F201F9003202090002021902290F9
:10366000239008211FA8FEF709FB4FF400400E909D
:1036700080031D900EA8FEF7BDF925B000BD000027
:103680000548016841F47001016003494FF0006092
:10369000803908607047000088ED00E00148FFF7BE
:1036A000BDB80000100900200148FFF7B7B80000BE
:1036B0005C0900200148FFF7B1B80000A80900200C
:1036C00010B50448FFF7AAF8BDE810400248FDF71E
:1036D00002BE0000F40900209C0800202DE9F04300
:1036E0000268234B234D244E244C4FF080499842CE
:1036F00007D0484505D0A84203D0B04201D0A0422F
:1037000003D122F070074A683A431D4FDFF874C0B6
:10371000DFF8748098420DD048450BD0A84209D0FC
:10372000B04207D0A04205D0B84203D0604501D0D6
:10373000404503D122F44075CA682A434D6922F0FE
:1037400080022A4302608A68C2620A6882629842E2
:1037500007D0A04205D0B84203D0604501D0404513
:1037600001D10969016301214161BDE8F0830000D5
:10377000002C0140000400400008004000340140DB
:1037800000400140004401400048014010B58468F9
:1037900042EA032224F47F440A432243826010BD9C
:1037A0008268034B1A400A4342F007018160704768
:1037B0008FFFCFFF10B5036A046A24F0010404628E
:1037C000846924F0F00444EA021423F00A020A4354
:1037D0008461026210BD000070B5046A24F0010427
:1037E00004628469056A124EB0420ED0B0F1804F77
:1037F0000BD0104EB04208D00F4EB04205D00F4E45
:10380000B04202D00E4EB04203D124F00304144360
:1038100001E044F001041A0724F0F00444EA1262C3
:1038200025F00A0301F00A0119438261016270BDAB
:10383000002C01400004004000080040003401401A
:103840000040014010B5036A23F01003036283694E
:10385000046A23F4704343EA023224F0A00343EAEB
:1038600001118261016210BD30B5046A24F01004B8
:1038700004628469056A24F4407444EA022222F452
:1038800070444FF6FF7202EA03322243A02425F06F
:10389000A00304EA011119438261016230BDFEE711
:1038A00003B401984100009850EAC12018BF0420D9
:1038B0004A0D18BF40F0010040F2FF72B2EB515FB9
:1038C00008BF40F00200012808BF052002B0704781
:1038D0000907090E002804DB00F1E02080F800143D
:1038E000704700F00F0000F1E02080F8141D7047D1
:1038F00010B52F499FED2C1B2DED020B84B00598C0
:1039000020F000408842DCBF00209DED040B32DD3A
:103910002849884209D1049840B94FF00100FCF7CA
:1039200036FE00F03DFC06B010BD05DB9DED040B3E
:1039300000F02AFC06B010BD68469DED040B00F0B7
:103940003BF810F0030011D0012818D09DED021BA8
:103950009DED000B02281AD000F04AFA51EC100B32
:1039600001F0DCF806B041EC100B10BD9DED021B20
:103970009DED000B012000F06FFB06B010BD9DED2A
:10398000021B9DED000B00F033FA06B010BD0120C4
:1039900000F062FB51EC100B01F0C0F806B041ECF6
:1039A000100B10BD0000000000000000000000002F
:1039B000FB21E93F0000F07F2DE9F14F04462DED9A
:1039C000020B2DED088B8AB09FEDE70B80ED020B0B
:1039D000139EE74826F0004585420ADC9DED120B58
:1039E000002084ED000B0AB0BDEC088B03B0BDE8ED
:1039F000F08FE0489FEDE0AB9FEDE1BBA84247DDD3
:103A0000E14F9FEDE39B9FEDE48B9DED120B53EC9B
:103A10001A2B51EC100B002E1CDD01F01DFC41ECAB
:103A2000100BBD4208D053EC1B2B51EC100B01F0D6
:103A300013FCC4E900010BE053EC192B51EC100B03
:103A400001F00AFC53EC182B01F006FCC4E900015C
:103A50000120C8E701F06EF841EC100BBD4208D020
:103A600053EC1B2B51EC100B01F064F8C4E900017E
:103A70000BE053EC192B51EC100B01F05BF853ECFD
:103A8000182B01F057F8C4E900014FF0FF30AAE706
:103A9000C348A84279DB9DED120B51EC100B00F0EE
:103AA000B7FB41EC180B9FEDC00B53EC102B01F052
:103AB000C9FA9FEDBF1B53EC112B01F03BF801F04D
:103AC00039FA074601F093FA41EC190B53EC1A2B23
:103AD00001F0B8FA53EC182B01F0B2FB41EC180BD3
:103AE00053EC1B2B51EC190B01F0ACFADFF8C8A218
:103AF00041EC100B4FEA15580125FA4453EC102BFA
:103B000051EC180B01F0A8FB032DC4E900013DD0D6
:103B1000C1F30A5005EB4511A8EB000011398142B1
:103B200034DA0AEB051BB0EE48AA9BED000BF0EE71
:103B300068AA53EC102B51EC190B01F083FA41ECFD
:103B40001B0B51EC1A0B53EC1B2B01F085FB41ECCA
:103B5000180B51EC1A0B53EC182B01F07DFB53ECB6
:103B60001B2B01F079FB9BED020B41EC1A0B53EC84
:103B7000102B51EC190B01F065FA53EC1A2B01F0E4
:103B80006BFB41EC100B6D1CB8E70EE0002EA8BFDC
:103B90003846BFF628AF94ED000B51EC100B00F047
:103BA000BDFFC4E9000178421DE7C6F3130040F4ED
:103BB000801EC6F30A50A0F2F530471100F01F0531
:103BC000C5F12000DDF848B008900020069007906D
:103BD0000520EC467949002D07EB0002794408BF27
:103BE00051F8221009D051F8223001EB8201AB408C
:103BF0004A68089922FA01F11943A1FB0E26A1FB9C
:103C00000B131A449A4234BF0123002303EB060826
:103C10000CEB8003D3E901A60E448E4234BF012190
:103C2000002192448A4411B1924502D903E09245A1
:103C300001D2012100E00021C3E901A641444CF872
:103C40002010011EA0F10100C4DC029800F1005018
:103C5000850F0298DDE903678000DDF8148001F02C
:103C6000C6F941EC1A0B304601F0D8F99FED541B10
:103C700053EC112B01F0E6F941EC1B0B384601F037
:103C8000CDF99FED511B53EC112B01F0DBF941EC09
:103C9000180B404601F0C2F99FED4D1B53EC112B60
:103CA00001F0D0F941EC190B51EC180B53EC192B26
:103CB00000F040FF53EC1B2B00F03CFF53EC1A2BA1
:103CC00000F038FFCDE90801002008909DED080BB9
:103CD00053EC1A2B51EC100B01F0BEFA53EC1B2BDA
:103CE00001F0BAFA53EC182B01F0B6FA53EC192B89
:103CF00001F0A6FA9FED381B53EC112B01F0A2F94D
:103D00009FED370B41EC180B53EC102B9DED080B7E
:103D100051EC100B01F096F953EC182B00F00AFF50
:103D20009FED310B41EC180B53EC102B9DED080B64
:103D300051EC100B01F086F953EC182B00F0FAFE51
:103D400041EC100B139810F0004F06D06D4251EC6F
:103D5000100B00F0E3FE41EC100B284684ED000B45
:103D600041E600000000000000000000000000002C
:103D7000FB21E93F7CD9024000004054FB21F93F80
:103D80003163621A61B4D03DFB21F93F00000000AD
:103D90000000601A61B4D03D7370032E8A19A33BF2
:103DA000FB2139410000000083C8C96D305FE43F4A
:103DB000000000000000E03F422C0000902B0000BB
:103DC000000000000000103E000000000000103C59
:103DD000000000000000103A182D4454FB21F93D6A
:103DE0003326A611460B113C00000054FB21F93D7F
:103DF00010B52DED040B2DED088B82B0B0EE419A7D
:103E0000F0EE619A0B9820F000449FED4BABB4F1BB
:103E1000795F11DA9DED0A0B51EC100B01F08AF875
:103E2000002801BFB0EE4A0AF0EE6A0A02B0BDEC0B
:103E3000088B04BF04B010BD9DED0A0B53EC102B92
:103E400051EC100B01F0FEF841EC180B3C48062138
:103E5000B0EE480AF0EE680A784400F081F853ECBE
:103E6000182B51EC100B01F0EDF89DED0A0B41EC15
:103E70001B0B53EC192B51EC100B01F0E3F841EC48
:103E8000190B53EC1B2B51EC180B01F0DBF853EC26
:103E9000192B01F0E1F99FED2C0B41EC190B53ECC0
:103EA000102B51EC180B01F0CDF841EC100B284809
:103EB000844210DA53EC192B51EC100B01F0CCF9C1
:103EC00053EC1A2B01F0BCF941EC100B02B0BDEC25
:103ED000088B04B010BD1F48A042BCBF9FED1E1B45
:103EE0008DED001B06DBA4F5001001900020009072
:103EF0009DED001B51EC100B53EC112B01F0ACF9B4
:103F00009DED000B41EC180B53EC102B51EC1A0BF0
:103F100001F0A2F941EC1A0B53EC192B51EC180BE0
:103F200001F09AF953EC1A2B01F08AF941EC100BCD
:103F3000CCE7000000000000000000000000F03F9F
:103F4000B428000000000000000000000000E03F76
:103F50003333D33F0000E93F000000000000D23FB0
:103F600070B504462DED028B4D1E00EBC500B0EE82
:103F7000408AF0EE608A90ED000B35F0060017D015
:103F800053EC182B51EC100B01F05CF841EC100BCA
:103F90006D1E04EBC50090ED001B51EC100B53ECB3
:103FA000112B00F0C7FD41EC100B35F00600E7D1F6
:103FB000022D36D0042D1CD0062D1CBFBDEC028B6B
:103FC00070BD53EC182B51EC100B01F03BF894ED45
:103FD0000A1B53EC112B00F0ADFD53EC182B01F034
:103FE00031F894ED081B53EC112B00F0A3FD41ECCC
:103FF000100B53EC182B51EC100B01F023F894ED3F
:10400000061B53EC112B00F095FD53EC182B01F01F
:1040100019F894ED040B53EC102B00F08BFD41ECE0
:10402000100B53EC182B51EC100B01F00BF894ED26
:10403000021B53EC112B00F07DFD53EC182B01F00B
:1040400001F894ED001B53EC112B00F073FDBDEC57
:10405000028B41EC100B70BD31B504462DED040B05
:104060002DED0A8BB0EE41BAF0EE61BA0B989DEDE2
:104070000A0B20F00040B0F1795F0DDA51EC100B23
:10408000FFF70EFC042808BF00F09AF89DED0A0B1C
:10409000BDEC0A8B05B030BD53EC102B51EC100B6E
:1040A00000F0D0FF41EC180B9DED0A0B53EC182BE0
:1040B00051EC100B00F0C6FF41EC190B2C48B0EE90
:1040C000480AF0EE680A05217844FFF749FF9FEDA2
:1040D0002ACBB0EE40AAF0EE60AA9CB353EC1C2BA6
:1040E00051EC190B00F0AEFF41EC1C0B53EC1A2BFA
:1040F00051EC190B00F0A6FF9FED210B41EC190BC1
:1041000053EC102B51EC1B0B00F09CFF53EC192BC4
:1041100001F0A2F853EC182B00F094FF53EC1B2B8A
:1041200001F09AF853EC1C2B01F096F89DED0A1B58
:1041300053EC112B01F084F8BDEC0A8B05B041EC77
:10414000100B30BDFFE753EC1A2B51EC180B00F0AD
:1041500079FF53EC1C2B00F0EDFC53EC192B00F015
:1041600071FF9DED0A1B53EC112B00F0E3FCE3E71C
:104170003C27000000000000495555555555C5BF66
:10418000000000000000E03F10B553EC102B51EC94
:10419000100B00F0CFFC41EC100B10BD0000000034
:1041A0009FED050B10B553EC102B51EC100B00F0EC
:1041B00069FD41EC100B10BD000000000000000084
:1041C0009FED050B10B553EC102B51EC100B00F0CC
:1041D00039FF41EC100B10BD000000000000001082
:1041E00030380A2801D2012070470020704710B5EE
:1041F0004FF6FF7420B12046FEF73EFD002003E09D
:104200000020FEF739FD2046BDE81040FEF748BD0E
:1042100082B0CDE9000121F0004001909DED000B3E
:1042200002B051EC100B70470A48016801F001021E
:104230000168006801F00201114300F00400084326
:104240004FF09041096901F0010140EAC100C0430B
:10425000C0B2704710040048FDF7E0FAFFF7D6F946
:10426000FEF708FFFEF7E8FEFEF77AFFFEF7AEFF67
:10427000FEF72AFEFEF76EFEFEF7A8FEFEF7DEFF53
:10428000FFF710F81E48FEF7F7F800224FF400631E
:1042900011461C48FDF7BAF800211A48FDF7C3F88B
:1042A00000F036F800F01CFC174D184CFFF7BCFF6F
:1042B00000F08CF8E8780528F8D2DFE800F0030970
:1042C0000F151B00AA79D4E9000100F041FAEDE7CF
:1042D000AA79D4E9000100F0E3F9E7E7AA79D4E983
:1042E000000100F05DFAE1E7AA79D4E9000100F0ED
:1042F00037F9DBE7AA79D4E9000100F09DF9D5E7A9
:10430000F40900209C080020400A0020B807002083
:1043100010B5FEF757FC4FF6FF70FEF7C1FB274CB8
:1043200000205A212070A171A1726421A1802181F5
:10433000E0706070A07000F07DFB0020FFF757FF79
:1043400000F0ACFB0120FFF752FF00F09FFA00F0F5
:10435000EDFA00F084FBFCF753FAF2EE040AA17ABE
:1043600060EE200AFCEEE00A10EE900ADFED140A7F
:10437000084420EE200AA0712189BCEEC00A10EE8C
:10438000100A51FA80F080B200EE100ADFED0D0A3B
:10439000A080B8EE400A0C4880EE801ABCEEC10A3C
:1043A00080ED000A002000F0DBFAA08800F010FB8E
:1043B000A079BDE8104000F01BBB0000400A0020BF
:1043C0000000C8420050C347B80700202DE9F04163
:1043D0000024384E07460125A04600BF05FA04F028
:1043E000384201D0355518E0305DB0B106F8048090
:1043F00034B1012C07D0022C08D0032C0BD108E0DB
:1044000000F088F807E000F05FF804E000F066F8DC
:1044100001E000F089F800F00BFA641CE4B2042C0F
:10442000DCD3254CA078002841D06078022819D030
:1044300003283CD1FCF7E4F9F2EE040AA17A20EE5D
:10444000200ABCEEC00A10EE100A0844A071002039
:10445000FFF7CDFEA07900F0CBFABDE8F0410120D6
:10446000FFF7C5BEFCF7CCF9DFED140A218920EE79
:10447000200ABCEEC00A10EE100A51FA80F0A080AB
:104480000020FFF7B4FEA08800F0A2FA0120FFF799
:10449000AEFEA088DFED0A0A00EE100A0948B8EE69
:1044A000400A80EE801ABCEEC10A80ED000ABDE829
:1044B000F0810000B4070020400A00200000C8423C
:1044C0000050C347B807002003488178002901D075
:1044D0000021817070470000400A00200C4801460E
:1044E0008278497872B1022905D0817A5A2901D29D
:1044F0000A31817270470189B1F5617FFAD2643166
:104500000181704709B1491E00E0032141707047E5
:10451000400A002003488178002901D101218170DF
:1045200070470000400A00200C4801468278497814
:104530006AB1022905D0817A0A2901D30A39817228
:10454000704701896429FBD36439018170470329CD
:1045500001D2491C00E0002141707047400A002050
:1045600000EE102A9FED2E1AB8EE400AC0EE010AA6
:1045700000EE100AB8EE400A20EE800ABCEEC00A37
:1045800010EE102A8A4248D300EE100A9FED251A39
:10459000DFED251AB8EE400A60EE010A81EEA00AAE
:1045A00000EE900AF8EE600A60EE810AFCEEE00A86
:1045B00010EE902A8A4208D900EE901AF8EE600AAE
:1045C00020EE200ABCEEC00A20E000EE900AB8EE11
:1045D000601ADFED160A21EE201ABCEEC11A11EEA8
:1045E000102A8A4202D340F6FE7311E001EE101A3F
:1045F000F8EE411A01EE100AB8EE411A41EE601AC7
:10460000DFED0B0A40EE610ABCEEE00A10EE103A54
:10461000002211460748FCF7F9BE0023F8E7000026
:104620000000C842CDCC4C3E00E07F45CDCC4C3F95
:1046300000F07F459C08002000EE102A9FED151A1F
:10464000B8EE400AC0EE010A00EE100AB8EE400AC9
:1046500020EE800ABCEEC00A10EE102A8A4212D365
:1046600000EE100A9FED0C1AF8EE400A81EE200AC7
:1046700000EE901AF8EE600A20EE200ABCEEC00AA6
:1046800010EE103A00E00023002211460348FCF728
:10469000BDBE00000000C84200E07F459C0800202D
:1046A00000EE102A9FED221A10B5B8EE400AC0EEB7
:1046B000010A00EE100AB8EE400A20EE800ABCEEB5
:1046C000C00A10EE102A8A4229D300EE101AF8EE22
:1046D000400A00EE100AB8EE401A80EE810ADFEDC3
:1046E000150A20EE200A10EE100A00F09FFE41ECA1
:1046F000100BFFF7FDF89FED101B51EC100B53EC66
:10470000112B00F017FA9FED0E1B53EC112B00F04C
:1047100099FC00F03FFC0C490346086000E00023D0
:104720000022BDE8104011460848FCF76FBE0000AB
:104730000000C842DB0FC940000000000000F03F4D
:104740000000000000FC9F40C00700209C080020E3
:1047500000EE102A9FED0D1AB8EE400AC0EE010AD5
:1047600000EE100AB8EE400A20EE800ABCEEC00A45
:1047700010EE100A884202D340F6FE7300E00023D8
:10478000002211460248FCF741BE00000000C8426A
:104790009C0800200149096808607047A8090020AA
:1047A00000EE102A9FED1F1AB8EE400AC0EE010A73
:1047B00000EE100AB8EE400A20EE800ABCEEC00AF5
:1047C00010EE102A8A422BD300EE900AB6EE001AA1
:1047D00041F6FC72F8EE600AB2FBF0F260EE810A7C
:1047E00000EE102AFCEEE00AB8EE400A10EE900A45
:1047F00000EE901A8842B8EE601A04D3F7EE000A71
:1048000050EE010A03E0DFED080A40EE410ABCEE7B
:10481000E00A10EE103A002211460448FCF7F6BDFB
:104820000023F8E70000C8420000FA459C08002079
:1048300070B5154CA078E0B16078002538B101283A
:1048400016D1E07804280ED2401CE0700CE02078ED
:1048500038B10020207000F0EDF82078FFF79AFFC3
:1048600005E00120F6E7E570E07800F079F8A57042
:1048700070BDA08800F0ACF8A07900F0B9F86078BD
:10488000BDE8704000F07EB8400A002010B502225A
:1048900040F235113020FEF70BFA032240F21D11D1
:1048A0003020FEF705FA042240F205113020FEF711
:1048B000FFF90522ED21BDE810403020FEF7F8B9E0
:1048C00010B51122A1213020FEF7F2F91A22892118
:1048D0003020FEF7EDF9FA227121BDE810403020BA
:1048E000FEF7E6B910B51822A1213020FEF7E0F955
:1048F000192289213020FEF7DBF91A227121BDE847
:1049000010403020FEF7D4B910B51622A121302076
:10491000FEF7CEF9172289213020FEF7C9F91A22B5
:104920007121BDE810403020FEF7C2B910B5062253
:1049300040F235116020FEF7BBF9072240F21D114D
:104940006020FEF7B5F90B2240F205116020FEF75A
:10495000AFF90C22ED21BDE810406020FEF7A8B9A8
:1049600005280ED2DFE800F0030507090B00FFF76A
:10497000A7BF00F0A2B800F04BB8FFF7C5BFFFF724
:10498000B1BF704710B5044600F088F8FFF77EFF0E
:10499000FFF7CCFF00F063F80020FFF728FC34B1EC
:1049A000012C07D0022C08D0032C0BD108E000F01A
:1049B00075F807E0FFF76AFF04E0FFF7B7FF01E0D3
:1049C00000F04DF8BDE810400120FFF710BC0000DA
:1049D0000EB5024604A16846FBF796FC6A46A12183
:1049E0006020FEF7A3F90EBD2530346400000000FE
:1049F0000EB5024604A16846FBF786FC6A46A12173
:104A00009020FEF793F90EBD2530336400000000BE
:104A100010B51422A1213020FEF74AF91522892170
:104A20003020FEF745F91A227121BDE810403020F0
:104A3000FEF73EB910B530B10D22B3210020FEF7CC
:104A400037F90E2205E00F22B3210020FEF730F9DE
:104A500010229B21BDE810400020FEF729B910B5B7
:104A6000082240F235119020FEF722F9092240F287
:104A70001D119020FEF71CF90A2240F2051190202A
:104A8000FEF716F90B22ED219020FEF711F90C220A
:104A9000D521BDE810409020FEF70AB910B50022DC
:104AA00040F235111046FEF703F90122BDE810402F
:104AB00040F21D110020FEF7FBB810B51222A12113
:104AC0003020FEF7F5F8132289213020FEF7F0F8A8
:104AD0001A227121BDE810403020FEF7E9B800002D
:104AE00010B500F00BF80448FDF7E0FC0249002087
:104AF0000968086010BD0000A809002010B5002258
:104B00004FF4006311460448FCF780FCBDE81040F8
:104B100000210148FCF787BC9C08002081F000417F
:104B2000704780F00040704721F00041704720F04E
:104B30000040704710B591EA030F48BF83F000436F
:104B400000F19283841A71EB030C05D2121943EB26
:104B50000C03001B61EB0C01DFF824E14FEA115458
:104B6000A4EB135C1EEA430F18BF9EEA445F73D0A8
:104B700023EA0E03DCF1200E21EA045143F48013F2
:104B800032D322FA0CFE10EB0E0023FA0CFE41EB9E
:104B90000E01CCF1200E03FA0EFE10EB0E0051F1C7
:104BA0000001B1F5801FCCF1200E32D201EB04518F
:104BB00012FA0EF2BDE8104058BF7047401C38BFD3
:104BC0005FEA420218BF7047002814BF20F00100BE
:104BD00041F100014FEA410313F5001F38BF704750
:104BE000A1F1C04100F026BB012A43EB0302ACF166
:104BF000200CDCF11F0E32BF4FF0000E23FA0CF335
:104C000010EB030041EB0451B4EB115FD0D0A1EBEA
:104C1000045101F5801149085FEA300001EB0451AD
:104C20000ED350F1000038BF12FA0EFE08D1BDE8D5
:104C30001040C9E7401C38BF5FEA4202CAD1C3E74F
:104C4000BDE810404FEA410313F5001F38BF70471D
:104C5000A1F1C04100F0EEBA9EEA445F08D011EA2B
:104C60005E0FBDE8104004BF01F000410020704716
:104C7000BDE8104070B500F08FFA00BF64FBBE3E87
:104C80000000E0FF2DE9C04130B4DFF8A0C23CEAEB
:104C9000111418BF3CEA131400F0EC8081EA0305FC
:104CA0001CEA111444EAD57418BF1CEA131500F06D
:104CB000C780A4EB05044FF0004545EAC12145EA51
:104CC000C32341EA505143EA525304F17F7499429D
:104CD00004F500344FEAC0204FEAC22208BF9042D8
:104CE00000F09C804FEA13650FF24016765D4FEAA4
:104CF000134506FB05F7C7F1807706FB07F74FEA78
:104D0000D737A7FB03687642C8F58038A7FB06CEE5
:104D100038BFA8F1010807FB08E64FF0000EA6FB1C
:104D2000028CE6FB03CEDCF1000CCEF1004E38BF66
:104D3000AEF1010EA6FB0C584FF000074FF0000536
:104D4000E6FB0E87A1FB08C6A0FB07CE16EB0E06FE
:104D500045F10005E1FB076515F1E04E7EBFA4F5C6
:104D600080345FEA46066D4116F1800745F1000583
:104D70004FEA17274FEA066647EA0567A6F1DE46BF
:104D8000B6F1805F4FEA15251FD9384624F0010C93
:104D900005EBC471BCF1FE6F01EB0C1102D8F0BC45
:104DA000BDE8008124425CBF01F5801E9EEAC47FFD
:104DB00002D4F0BCBDE80081244238D4F0BCA1F19B
:104DC000C041BDE8004100F035BA4FEAD22242EAC4
:104DD00043524FEAD323A7FB02864FEAD02040EA92
:104DE000415007FB03661EEA0E0F4FEAD12105FB77
:104DF000026658BFA6EB0056B6EB00564FEA520EBD
:104E00004EEAC37E18EB0E0E56EB530EBDD518EBD3
:104E100002085E417F1C55F10005B6E74FF480158E
:104E20004FF000074FF000064FF00008ADE7F0BC70
:104E30004FF0000001F1C04101F00041BDE80081E8
:104E400011EA0C1F0CEA131500D00CE013EA0C1F3A
:104E500000F025804FF00000F0BC81EA030101F072
:104E60000041BDE80081F0BCBDE8004181EA0301DA
:104E700000F0E0B9F0BCBDE8004170B500F08CF97D
:104E8000097EFC3E00F007B881EA03014FF0000004
:104E900001F00041704781EA030100F0CBB9F0BC9A
:104EA000BDE800414FF0000021497047FFFDFBF9CC
:104EB000F7F5F4F2F0EEEDEBE9E8E6E4E3E1E0DE4D
:104EC000DDDBDAD8D7D5D4D3D1D0CFCDCCCBCAC8BF
:104ED000C7C6C5C4C2C1C0BFBEBDBCBBBAB9B8B7E6
:104EE000B6B5B4B3B2B1B0AFAEADACABAAA9A8A8D9
:104EF000A7A6A5A4A3A3A2A1A09F9F9E9D9C9C9BA7
:104F00009A99999897979695959493939291919051
:104F10008F8F8E8E8D8C8C8B8B8A898988888787E2
:104F20008685858484838382828181800000FF0757
:104F30000000F87F4FEA41034FEA5353A3F5806323
:104F4000D3F11E03C8BFD3F1210C0CDD4FF000429A
:104F500042EAC12242EA505232FA03FC8CEAE17C76
:104F6000ACEBE1707047102BC4BF0020704703F515
:104F7000787CBCF1FF3F04D06FF0004282EA210050
:104F8000704770B500F008F94992248000207047FE
:104F9000F2E700004FEA1153A3F58063D3F11E033B
:104FA000A8BFD3F1200C08DB4FF0004242EAC12237
:104FB00052EA505232FA03F0704709420BD4102BD8
:104FC000C4BF0020704703F5787CBCF1FF3F05D0DB
:104FD0004FF0FF3070474FF00000704770B500F0A1
:104FE000DBF800BF4992248000207047F0E710F002
:104FF000004248BF4042B0FA80F310FA03F10AD0F1
:10500000C3F11D0303F580634FEA415002EB0352E5
:1050100002EBD12170474FF000007047B0FA80F3E7
:1050200010FA03F10AD0C3F11D0303F580634FEAC0
:1050300041504FEA035202EBD12170474FF000007C
:1050400070470000DFF848C170B51CEA111E1EBF92
:105050001CEA13159EEA0C0F95EA0C0F00F06F8006
:1050600081EA030423EA4C134EEAD47E21EA4C1170
:1050700041F4801143F48013AE44A1FB024CA0FB29
:105080000365AEF17F7E361955EB0C05A1FB034C91
:105090004CF10003A0FB021C16EB0C06654153F11A
:1050A0000003094218BF46F0010613F4007F0BD13C
:1050B0004FEA03314FEA0530340341EA155140EA23
:1050C00016506FF003020AE04FEAC3214FEAC520F1
:1050D000F40241EA555140EA56506FF0020202EBE9
:1050E0002E4201EB025585EACE710AD05FEA440CEC
:1050F00018BF24F0004450F1000041F1000120EA03
:10510000D47040F2FE7C624500D270BDA84214BF4C
:105110004FF080444FF04044002E08BF0024BEF101
:10512000806FA8BFA1F1C041BDE8704080F28280CD
:105130004FF0000001F1C04101F0004170479EEACC
:105140000C0F0CEA131518BF95EA0C0F06D04FF0A0
:10515000000081EA030E0EF0004170BD00F01CF863
:105160008900013E00F007B800F009B84FEA430C8F
:105170005FEA5C5C08D081EA030100F05BB84FEAAB
:10518000410C5FEA5C5CF6D14FF0000001497047CA
:105190000000FF070000F87F0EF1020E2EF0030E54
:1051A0005EF8046B364205D4012A43EB030515F57E
:1051B000001F12D8012841EB010C1CF5001F0CD870
:1051C0000ED14FEAD17C15F5001F0CEB4C0C0CF105
:1051D000020C08BF4CEBD37C04E04FF0080C01E05C
:1051E0004FEAD37C0CEB4C0526FA05F606F00706D1
:1051F000B6F1040C06D20EEB860CBDE870404CF004
:10520000010C6047DFE80CF0090B02024FF000418F
:105210004FF00000A1F5002170BD1946104601288D
:1052200051EB010418BFD4F5001484BF002001F035
:10523000004170BD0808A0F500114FEA3101704728
:1052400091EA030F10B581F000413FF57BAC83F08C
:10525000004300F009B8000010B591EA030F48BF01
:1052600083F000433FF56EAC841A71EB030C07D258
:1052700012198CF0004C43EB0C03001B61EB0C018A
:10528000DFF8A4E14FEA1154A4EB135C1EEA430FCC
:1052900018BF9EEA445F00F0B08023EA6E035242DA
:1052A00021EA0451C3EB6E0338BF5B1EDCF1200E14
:1052B00025D322FA0CFE10EB0E0043FA0CFE41EB54
:1052C0000E01CCF1200E03FA0EFE10EB0E0051F190
:1052D0000001CCF1200E29D412FA0EF201EB045198
:1052E000BDE8104058BF7047401C1CBFB2F1004FD2
:1052F000704700280CBF491C20F00100704712EBDA
:10530000020E43EB030218BF4FF0010E4EEA4202B9
:10531000ACF1200CDCF11E0E54D943FA0CFE10EB5C
:105320000E0051F1FF31CCF11E0ED5D50EF1010E5C
:1053300012FA0EFE404141EB010101EB445C5FEAD1
:105340005C5C10D910EBDE7001EB045138BFBEF18C
:10535000004FBDE8104018BF704700280CBF491C23
:1053600020F00100704730D24FEAD42C11F5001123
:1053700024F400641BD0B1FA81F20B3AA41AA41EE3
:10538000D2F12003914030FA03F31943904001EB2E
:10539000CC71002C01EB0451BDE81040A8BF704750
:1053A00001F1C0414FF0000001F000417047B0FA38
:1053B00080F310FA03F100D110BDE41A173C480540
:1053C000C90AE4E701EB045110BD491001EB045197
:1053D000BDE810404FEA300002E04FF00001704796
:1053E0004A0008BF0042F8D0B2F5001F28BF70473E
:1053F00001F000414FF0000070479EEA445F07D083
:1054000011EA5E0FBDE8104004BF00210020704784
:10541000BDE8104070B5FFF7BFFE00BF40DFF63EAD
:1054200083F00041104670470000E0FF43004FEA60
:10543000D30C4FEA3C0C43401FBF40070CF16051B6
:1054400013F0FE4F70471CF0006F03D100200CF0EA
:10545000004170470CF0004343EA507010B540EA39
:10546000CC0000F00EF800BF000000924FEA0001EF
:10547000FFF7E0BE4FF000414FF00000A1F5002122
:1054800070470EF1020E2EF0030E5EF8044B24421C
:1054900004D44FEA4102B2F17F4F11D84FEA4003E2
:1054A000B3F17F4F0CD80ED14FEAD07CB2F17F4FD1
:1054B0000CEB4C0C0CF1020C08BF4CEBD17C04E063
:1054C0004FF0080C01E04FEAD17C0CEB4C0324FABE
:1054D00003F404F00704B4F1040C06D20EEB840CC0
:1054E000BDE810404CF0010C6047DFE80CF0070805
:1054F00002024FF00040A0F5800010BD08464200B7
:1055000018BFD2F1807288BF00F0004010BD4FF08C
:105510004070E1EE100A704700000000000000003B
:10552000000000000000000000000000000000007B
:10553000000000000000000000000000000000006B
:1055400000000000000000000000800180018001D8
:105550008001800180018001800180018001800143
:105560008001800100000000800180010000000037
:10557000000000000000000000000000CC00CC0093
:10558000CC00CC00CC00CC000000000000000000EB
:10559000000000000000000000000000000000000B
:1055A00000000000000000000000000000000000FB
:1055B00000000000600C600C600C30063006FE1F1E
:1055C000FE1F300638071803FE1FFE1F18031803BE
:1055D0008C018C018C01000000008000E003F80FBA
:1055E0009C0E8C1C8C188C009800F801E007800E33
:1055F000801C8C188C189C18B80CF00FE0038000ED
:1056000080000000000000000000000000000E18F4
:105610001B0C110C11061106110311039B018E01C5
:10562000C038C06C60446044304430441844186C46
:105630000C380000000000000000E001F003380713
:10564000180618063003F001F000F8009C310E3304
:10565000061E061C061C063FFC73F021000000001D
:105660000000000000000000000000000C000C0022
:105670000C000C000C000C000000000000000000FA
:10568000000000000000000000000000000000001A
:105690000000000000000000000000020003800184
:1056A000C000C000600060003000300030003000FA
:1056B000300030003000300060006000C000C000EA
:1056C0008001000300020000000020006000C00014
:1056D00080018001000300030006000600060006AA
:1056E000000600060006000600030003800180019A
:1056F000C00060002000000000000000000000006A
:1057000000000000C000C000D806F807E001300328
:10571000380700000000000000000000000000004A
:105720000000000000000000000000000000000079
:105730000000000080018001800180018001FC3FA9
:10574000FC3F800180018001800180010000000099
:105750000000000000000000000000000000000049
:105760000000000000000000000000000000000039
:105770000000000000000000000080018001000126
:105780000001800000000000000000000000000098
:105790000000000000000000000000000000000009
:1057A000E007E0070000000000000000000000002B
:1057B00000000000000000000000000000000000E9
:1057C00000000000000000000000000000000000D9
:1057D00000000000000000000000C000C000000049
:1057E00000000000000000000000000C000C00069B
:1057F000000600060003000300038003800180010F
:105800008001C000C000C000600060000000000017
:1058100000000000000000000000E003F007380E68
:10582000180C0C180C180C180C180C180C180C1858
:105830000C180C18180C380EF007E00300000000DC
:105840000000000000000000000000018001C00115
:10585000F0019801880180018001800180018001B0
:105860008001800180018001800180010000000032
:1058700000000000000000000000E003F80F180C1A
:105880000C180C1800180018000C0006000380010A
:10589000C000600030001800FC1FFC1F000000006A
:1058A00000000000000000000000E001F807180EF2
:1058B0000C0C0C0C000C0006C003C007000C0018F8
:1058C00000180C180C18180CF807E0030000000072
:1058D00000000000000000000000000C000E000F9F
:1058E000000F800DC00C600C600C300C180C0C0C00
:1058F000FC3FFC3F000C000C000C000C0000000002
:1059000000000000000000000000F80FF80F180071
:1059100018000C00EC03FC071C0E001C00180018FB
:1059200000180C181C0C180EF807E003000000000B
:1059300000000000000000000000C007F00F381C4D
:10594000181818000C00CC03EC0F3C0E1C1C0C1893
:105950000C180C18181C380EF007E00300000000AB
:1059600000000000000000000000FC1FFC1F000CF5
:1059700000060006000380038001C001C000E000B3
:105980006000600070003000300030000000000057
:1059900000000000000000000000E003F007380EE7
:1059A000180C180C180C3806F007F007180C0C1817
:1059B0000C180C180C18380CF80FE003000000004D
:1059C00000000000000000000000E003F007380EB7
:1059D0001C0C0C180C180C181C1C381EF81BE01999
:1059E0000018000C000C1C0EF807F001000000006D
:1059F00000000000000000000000000000000000A7
:105A00000000000080018001000000000000000094
:105A10000000000000000000800180010000000084
:105A20000000000000000000000000000000000076
:105A30000000000080018001000000000000000064
:105A40000000000000000000800180010001000152
:105A500080000000000000000000000000000000C6
:105A600000000000000000000010001C800FE00398
:105A7000F8001800F800E003800F001C0010000080
:105A80000000000000000000000000000000000016
:105A90000000000000000000F81F000000000000EF
:105AA000F81F0000000000000000000000000000DF
:105AB00000000000000000000000000000000000E6
:105AC000000000000000000008003800F001C007DE
:105AD000001F0018001FC007F00138000800000078
